:100000000C942A000C9447000C9447000C94470071
:100010000C9447000C9447000C9447000C94470044
:100020000C9447000C9447000C94B52C0C94692C4C
:100030000C9447000C9447000C9447000C94470024
:100040000C9447070C9447000C9447000C9447000D
:100050000C94470011241FBECFE5D8E0DEBFCDBF12
:1000600013E0A0E6B0E0EAEDFCE502C005900D92D9
:10007000A638B107D9F713E0A6E8B3E001C01D9296
:10008000A139B107E1F70E94852D0C946B2E0C94D9
:100090000000EF92FF920F931F937B018C0120E0F1
:1000A00030E040E05FE40E94F50388238CF0C80153
:1000B000B70120E030E040E05FE40E94C1010E940F
:1000C00055049B01AC01205030404040504806C0D0
:1000D000C801B7010E9455049B01AC01B901CA01D6
:1000E0001F910F91FF90EF900895A0E0B0E0EBE733
:1000F000F0E00C94342EDC012B01FA019C9192303B
:1001000008F439C1EB018881823008F433C194309E
:1001100069F4843009F02FC111969C91119789815F
:10012000981709F428C1ADE7B3E025C1843009F47C
:1001300021C18230A9F4923009F01DC19A01AD01AC
:1001400088E0EA010990AE01E90109929E0181501F
:10015000C1F7E201898111969C918923818308C1AD
:10016000923009F407C112962D903C901397EB0141
:100170008A819B811496AD90BD90CD90DC901797AD
:10018000EC80FD800E811F819101281B390BB90184
:1001900037FF04C066277727621B730B6032710537
:1001A0000CF061C0121613066CF537014801062EDB
:1001B00004C096948794779467940A94D2F721E0C8
:1001C00030E040E050E004C0220F331F441F551FB1
:1001D0006A95D2F721503040404050402E213F21B7
:1001E00040235123211531054105510521F021E01E
:1001F00030E040E050E079018A01E628F72808293C
:1002000019293CC0232BD1F1260E371E350146019A
:10021000062E04C096948794779467940A94D2F734
:1002200021E030E040E050E004C0220F331F441FC3
:10023000551F6A95D2F721503040404050402A2146
:100240003B214C215D21211531054105510521F04E
:1002500021E030E040E050E059016A01A628B728CB
:10026000C828D9280BC0821593052CF01C01AA249C
:10027000BB24650103C0EE24FF24870111969C91E5
:10028000D20111968C91981709F445C0992339F041
:10029000A80197012A193B094C095D0906C0A6016E
:1002A00095012E193F09400B510B57FD08C01182D3
:1002B0003382228224833583468357831DC081E0A5
:1002C00081833382228288279927DC01821B930B4A
:1002D000A40BB50B84839583A683B7830DC0220F2F
:1002E000331F441F551F24833583468357838281E0
:1002F000938101979383828324813581468157813D
:10030000DA01C9010197A109B1098F5F9F4FAF4F72
:10031000BF4328F30BC0918333822282EA0CFB1C7B
:100320000C1D1D1DE482F5820683178383E0808304
:10033000248135814681578157FF1AC0C901AA27F8
:1003400097FDA095BA2F81709070A070B0705695EF
:10035000479537952795822B932BA42BB52B848318
:100360009583A683B7838281938101969383828349
:10037000DF0101C0D201CD01CDB7DEB7E2E10C94BF
:10038000502EA0E2B0E0E7ECF1E00C94402E69833F
:100390007A838B839C832D833E834F835887E9E048
:1003A000EE2EF12CEC0EFD1ECE010196B7010E943F
:1003B0007E058E010F5E1F4FCE010596B8010E948B
:1003C0007E058A8991E089278A8BC701B801AE0131
:1003D000475E5F4F0E9475000E94A904A096E6E068
:1003E0000C945C2EA0E2B0E0E8EFF1E00C94402E1B
:1003F00069837A838B839C832D833E834F835887C5
:10040000F9E0EF2EF12CEC0EFD1ECE010196B701A6
:100410000E947E058E010F5E1F4FCE010596B8012A
:100420000E947E05C701B801AE01475E5F4F0E9482
:1004300075000E94A904A096E6E00C945C2EA0E250
:10044000B0E0E5E2F2E00C94342E69837A838B838A
:100450009C832D833E834F835887CE010196BE0136
:10046000675F7F4F0E947E05CE010596BE016F5EDD
:100470007F4F0E947E059985923088F0898982306D
:10048000C8F0943019F4823051F404C0843029F457
:10049000923081F48DE793E0C6C0923049F420E0B9
:1004A0009A858A89981321E02A87CE010996BBC0D4
:1004B000823049F420E09A858A89981321E02A8BBA
:1004C000CE014196B0C02D843E844F8458886D88FB
:1004D0007E888F88988CEE24FF248701AA24BB2471
:1004E000650140E050E060E070E0E0E0F0E0C10174
:1004F00081709070892BE9F0E60CF71C081D191D1E
:100500009A01AB012A0D3B1D4C1D5D1D80E090E062
:10051000A0E0B0E0E614F7040805190520F481E036
:1005200090E0A0E0B0E0BA01A901480F591F6A1F8E
:100530007B1FAA0CBB1CCC1CDD1C97FE08C081E0F5
:1005400090E0A0E0B0E0A82AB92ACA2ADB2A3196B6
:10055000E032F10549F0660C771C881C991C569412
:10056000479437942794C3CFFA85EA892B893C892D
:100570008B859C85280F391F2E5F3F4F17C0CA01FE
:1005800081709070892B61F016950795F794E79428
:1005900080E090E0A0E0B0E8E82AF92A0A2B1B2BC3
:1005A00076956795579547952F5F3F4F77FDE7CF36
:1005B0000CC0440F551F661F771F17FD4160EE0CDE
:1005C000FF1C001F111F21503040403090E05907A0
:1005D00090E0690790E4790760F32B8F3C8FDB0193
:1005E000CA018F779070A070B07080349105A1051A
:1005F000B10561F447FD0AC0E114F10401051105DC
:1006000029F0405C5F4F6F4F7F4F40781A8EFE1786
:1006100011F081E08A8F4D8F5E8F6F8F78A383E01A
:10062000898FCE0149960E94A904A096E2E10C941C
:10063000502EA8E1B0E0EFE1F3E00C943C2E69838A
:100640007A838B839C832D833E834F835887B9E0C5
:10065000EB2EF12CEC0EFD1ECE010196B7010E948F
:100660007E058E010F5E1F4FCE010596B8010E94D8
:100670007E052985223008F47EC03989323010F495
:10068000B8017CC08A859A8989278A87243011F02D
:10069000223031F4231709F06EC06DE773E06EC0AD
:1006A000343039F41D861E861F86188A1C861B86E8
:1006B00004C0323021F484E08987B7015FC02B8504
:1006C0003C858B899C89281B390B3C872B87ED84C3
:1006D000FE840F851889AD88BE88CF88D88CEA142F
:1006E000FB040C051D0540F4EE0CFF1C001F111F40
:1006F000215030403C872B8720E030E040E050E044
:1007000080E090E0A0E0B0E460E070E0EA14FB0478
:100710000C051D0540F0282B392B4A2B5B2BEA18C2
:10072000FB080C091D09B695A79597958795EE0CC2
:10073000FF1C001F111F6F5F7F4F6F31710531F775
:10074000DA01C9018F779070A070B0708034910584
:10075000A105B10561F427FD0AC0E114F10401050A
:10076000110529F0205C3F4F4F4F5F4F20782D87B8
:100770003E874F87588BBE01675F7F4FCB010E943A
:10078000A9046896EAE00C94582EA8E1B0E0EBECDE
:10079000F3E00C94402E69837A838B839C832D83B2
:1007A0003E834F83588789E0E82EF12CEC0EFD1E26
:1007B000CE010196B7010E947E058E010F5E1F4F8C
:1007C000CE010596B8010E947E058985823040F0F1
:1007D0008989823028F0C701B8010E94F60501C05E
:1007E0008FEF6896E6E00C945C2EA8E1B0E0EBEFAA
:1007F000F3E00C94402E69837A838B839C832D8352
:100800003E834F83588789E0E82EF12CEC0EFD1EC5
:10081000CE010196B7010E947E058E010F5E1F4F2B
:10082000CE010596B8010E947E058985823040F090
:100830008989823028F0C701B8010E94F60501C0FD
:100840008FEF6896E6E00C945C2EA8E1B0E0EBE256
:10085000F4E00C94402E69837A838B839C832D83F0
:100860003E834F83588789E0E82EF12CEC0EFD1E65
:10087000CE010196B7010E947E058E010F5E1F4FCB
:10088000CE010596B8010E947E058985823040F030
:100890008989823028F0C701B8010E94F60501C09D
:1008A00081E06896E6E00C945C2EACE0B0E0EBE50D
:1008B000F4E00C94442E69837A838B839C83CE016D
:1008C0000196BE016B5F7F4F0E947E058D81823055
:1008D00061F1823050F1843021F48E81882351F10E
:1008E0002EC02F81388537FD20C06E812F31310514
:1008F0001CF06623F9F023C08EE190E0821B930B7D
:1009000029853A854B855C8504C056954795379572
:1009100027958A95D2F76623B1F05095409530958A
:1009200021953F4F4F4F5F4F0EC020E030E040E039
:1009300050E009C02FEF3FEF4FEF5FE704C020E02A
:1009400030E040E050E8B901CA012C96E2E00C9496
:10095000602EDF92EF92FF920F931F93FC01E480D1
:10096000F58006811781D1808081823048F480E053
:1009700090E0A0E1B0E0E82AF92A0A2B1B2BA5C0E1
:10098000843009F49FC0823021F4EE24FF248701D3
:1009900005C0E114F1040105110519F4E0E0F0E0EF
:1009A00096C0628173819FEF623879070CF05BC05B
:1009B00022E83FEF261B370B2A3131052CF020E0CF
:1009C00030E040E050E02AC0B801A701022E04C088
:1009D00076956795579547950A94D2F781E090E010
:1009E000A0E0B0E004C0880F991FAA1FBB1F2A9582
:1009F000D2F70197A109B1098E219F21A023B1232C
:100A00000097A105B10521F081E090E0A0E0B0E001
:100A10009A01AB01282B392B4A2B5B2BDA01C90138
:100A20008F779070A070B07080349105A105B105EA
:100A300039F427FF09C0205C3F4F4F4F5F4F04C080
:100A4000215C3F4F4F4F5F4FE0E0F0E02030A0E0EF
:100A50003A07A0E04A07A0E45A0710F0E1E0F0E00E
:100A600079018A0127C06038710564F5FB01E158FE
:100A7000FF4FD801C7018F779070A070B07080349D
:100A80009105A105B10539F4E7FE0DC080E490E0C1
:100A9000A0E0B0E004C08FE390E0A0E0B0E0E80E9A
:100AA000F91E0A1F1B1F17FF05C016950795F7941F
:100AB000E794319687E016950795F794E7948A9521
:100AC000D1F705C0EE24FF248701EFEFF0E06E2F91
:100AD000679566276795902F9F77D794DD24D794E5
:100AE0008E2F8695492F462B582F5D29B701CA01B5
:100AF0001F910F91FF90EF90DF900895FC01DB01B3
:100B0000408151812281622F6F7770E0221F22275E
:100B1000221F9381892F880F822B282F30E0991F65
:100B20009927991F11969C93119721153105A9F5C5
:100B3000411551056105710511F482E037C082E865
:100B40009FEF13969C938E9312979A01AB0167E0E7
:100B5000220F331F441F551F6A95D1F783E08C93F2
:100B60000DC0220F331F441F551F12968D919C916B
:100B70001397019713969C938E931297203080E0E1
:100B8000380780E0480780E4580758F314962D93FF
:100B90003D934D935C93179708952F3F310579F45A
:100BA000411551056105710519F484E08C93089590
:100BB00064FF03C081E08C9312C01C9210C02F57B9
:100BC000304013963C932E93129783E08C9387E0EA
:100BD000440F551F661F771F8A95D1F770641496CE
:100BE0004D935D936D937C93179708951F93DC014C
:100BF000FB019C91923008F447C08081823008F458
:100C000043C0943051F411961C91843099F5818140
:100C1000682F70E0611B71093FC0843021F0923071
:100C200031F48230B9F18181882389F12DC0119688
:100C30001C9111978230F1F081811817D9F4129626
:100C40002D913C911397828193818217930794F0A1
:100C500028173907BCF014968D919D910D90BC9189
:100C6000A02D2481358146815781281739074A07ED
:100C70005B0718F4112341F00AC082179307A407F9
:100C8000B50740F4112319F061E070E005C06FEF83
:100C90007FEF02C060E070E0CB011F910895DF9309
:100CA000CF93CDB7DEB7A7E2B0E0E7E2F0E0808116
:100CB00080648C93A7E2B0E0E7E2F0E080818F7778
:100CC0008C93A7E2B0E0E7E2F0E080818F7D8C9327
:100CD000A6E2B0E0E6E2F0E080818F7D8C93A6E2B0
:100CE000B0E0E6E2F0E0808184608C93A6E2B0E0C0
:100CF000E6E2F0E0808182608C93A6E2B0E0E6E27A
:100D0000F0E080818E7F8C93A6E2B0E0E6E2F0E036
:100D1000808180688C93CF91DF910895DF93CF938A
:100D2000CDB7DEB729970FB6F894DEBF0FBECDBFA3
:100D30008E8378876F8381E08D8319821A821B826C
:100D40001C828E818032D0F58F8198850097B1F119
:100D5000A7E2B0E0E7E2F0E08081807E8C93A7E23A
:100D6000B0E0E7E2F0E090818E81892B8C93A6E2DF
:100D7000B0E0E6E2F0E0808180648C93E6E2F0E0AF
:100D80008081E6E2F0E0808182958F70882F90E08C
:100D900081709070882381F0A6E2B0E0E6E2F0E096
:100DA000808180618C93E4E2F0E080819181EF8129
:100DB000F8859183808303C01D8201C01D828D81CF
:100DC00029960FB6F894DEBF0FBECDBFCF91DF914D
:100DD0000895DF93CF9300D000D0CDB7DEB78A83DC
:100DE0007C836B8381E089838A81803240F58B81AB
:100DF0009C81009721F18B819C8190938703809344
:100E00008603A6E2B0E0E6E2F0E0808188608C93A1
:100E1000A7E2B0E0E7E2F0E08081807E8C93A7E279
:100E2000B0E0E7E2F0E090818A81892B8C93A6E222
:100E3000B0E0E6E2F0E0808180648C9301C019822A
:100E400089810F900F900F900F90CF91DF910895AF
:100E5000DF93CF9300D00F92CDB7DEB79B838A8309
:100E600081E089838A819B81009749F0E4E2F0E088
:100E700080819181EA81FB819183808301C0198205
:100E800089810F900F900F90CF91DF9108951F925D
:100E90000F920FB60F9211242F933F934F935F93AE
:100EA0006F937F938F939F93AF93BF93EF93FF9332
:100EB000DF93CF93CDB7DEB7A6E2B0E0E6E2F0E095
:100EC0008081877F8C932091860330918703E4E2B1
:100ED000F0E080819181F9010995CF91DF91FF9137
:100EE000EF91BF91AF919F918F917F916F915F91A2
:100EF0004F913F912F910F900FBE0F901F9018951B
:100F0000DF93CF93CDB7DEB780E993E00E94622DE7
:100F100080919003813661F40E940A2080E690E07F
:100F20000E94EB2081E060E041E00E94A9154FC0E3
:100F300080919003823661F40E940A208FE690E04F
:100F40000E94EB2081E060E040E00E94A9153FC0D4
:100F500080919003853661F40E940A208FE790E02B
:100F60000E94EB2081E061E041E00E94A9152FC0C2
:100F700080919003863661F40E940A2080E990E017
:100F80000E94EB2081E061E040E00E94A9151FC0B3
:100F900080919003833661F40E940A2081EA90E0F8
:100FA0000E94EB2081E062E041E00E94A9150FC0A1
:100FB00080919003843659F40E940A2081EB90E0DE
:100FC0000E94EB2081E062E040E00E94A915809140
:100FD00090038134B1F40E940A2082EC90E00E94D8
:100FE000EB2081E062E041E00E94A91581E061E030
:100FF00041E00E94A91581E060E041E00E94A9154E
:1010000019C0809190038234A9F40E940A2082EDD5
:1010100090E00E94EB2081E062E040E00E94A91590
:1010200081E061E040E00E94A91581E060E040E0DD
:101030000E94A91580919003803309F065CF0E942A
:101040000A20CF91DF910895DF93CF93CDB7DEB71C
:1010500080E993E00E94622D80919003873489F4A7
:101060000E940A2083EE90E00E94EB2081E063E082
:1010700041E00E94A91581E064E040E00E94A915CA
:1010800029C080919003883489F40E940A208FEE51
:1010900090E00E94EB2081E064E041E00E94A9150D
:1010A00081E063E040E00E94A91514C080919003A4
:1010B0008A3481F40E940A208FEF90E00E94EB2096
:1010C00081E064E040E00E94A91581E063E040E037
:1010D0000E94A91580919003803309F0B9CF0E9436
:1010E0000A20CF91DF910895DF93CF93CDB7DEB77C
:1010F000A2970FB6F894DEBF0FBECDBF80E993E094
:101100000E94622D9E012F5D3F4F80E0B9010E9439
:101110008E0689A19AA1CC01A0E0B0E028E833E1D5
:1011200040E050E0BC01CD010E94DF2DDC01CB018D
:10113000072E7AE0B695A795979587957A95D1F77A
:10114000702D98A38F8F8F8D98A12AE030E0B90180
:101150000E94FE2DCB019E8F8D8F80919003843550
:1011600009F08CC00E940A208DE091E00E94EB20E3
:1011700080E090E8A2EAB4E4898F9A8FAB8FBC8FAD
:10118000698D7A8D8B8D9C8D20E030E04AEF54E4A0
:101190000E941F02DC01CB018D8B9E8BAF8BB88F21
:1011A0006D897E898F89988D20E030E040E85FE38B
:1011B0000E94250488232CF481E090E09C8B8B8B8B
:1011C0003FC06D897E898F89988D20E03FEF4FE782
:1011D00057E40E94C50318164CF5698D7A8D8B8DE6
:1011E0009C8D20E030E040E251E40E941F02DC01CF
:1011F000CB01BC01CD010E944900DC01CB019C8BDD
:101200008B8B0FC088EC90E09A8B898B89899A89A7
:101210000197F1F79A8B898B8B899C8901979C8B1D
:101220008B8B8B899C89009769F714C06D897E89A7
:101230008F89988D0E944900DC01CB019C8B8B8BA0
:101240008B899C89988B8F878F8598890197F1F777
:10125000988B8F870E940A208CE191E00E94EB20FE
:1012600081E06CE00E94D61F8D8D9E8DCC01A0E0A8
:10127000B0E0BC01CD010E94742440CF8091900366
:10128000893539F40E940A208CE291E00E94EB201B
:1012900035CF80919003853509F091C00E940A20D6
:1012A0008CE391E00E94EB2080E090E8A2EAB4E4B5
:1012B0008B879C87AD87BE876B857C858D859E855A
:1012C00020E030E04AEF54E40E941F02DC01CB0131
:1012D0008F839887A987BA876F81788589859A8552
:1012E00020E030E040E85FE30E94250488232CF4EE
:1012F00081E090E09E838D833FC06F8178858985F2
:101300009A8520E03FEF4FE757E40E94C503181687
:101310004CF56B857C858D859E8520E030E040E234
:1013200051E40E941F02DC01CB01BC01CD010E94EF
:101330004900DC01CB019E838D830FC088EC90E0D7
:101340009C838B838B819C810197F1F79C838B839A
:101350008D819E8101979E838D838D819E810097D3
:1013600069F714C06F81788589859A850E94490044
:10137000DC01CB019E838D838D819E819A8389833D
:1013800089819A810197F1F79A8389830E940A20C3
:101390008F8D98A129E0853C920728F48DE491E097
:1013A0000E94EB2094C08F8D98A12BE0883B920780
:1013B00008F48DC08BE591E00E94EB2088C08091FD
:1013C0009003893439F40E940A208AE691E00E9451
:1013D000EB2094CE80919003873551F40E940A202F
:1013E00089E791E00E94EB2080E00E9488256FC091
:1013F00080919003873751F40E940A2087E891E09A
:101400000E94EB2084E10E94882561C080919003B6
:10141000823551F40E940A2086E991E00E94EB2077
:1014200088E20E94882553C080919003823751F44E
:101430000E940A2085EA91E00E94EB208CE30E9442
:10144000882545C080919003853451F40E940A207C
:1014500084EB91E00E94EB2080E50E94882537C054
:1014600080919003853651F40E940A2083EC91E02C
:101470000E94EB208AE50E94882529C08091900374
:10148000883451F40E940A2082ED91E00E94EB2002
:1014900088E70E9488251BC0809190038A3551F40B
:1014A0000E940A2082EE91E00E94EB2086E90E94D1
:1014B00088250DC0809190038A3749F40E940A2044
:1014C00082EF91E00E94EB2084EB0E9488258091BE
:1014D0009003803309F012CE0E940A20A2960FB624
:1014E000F894DEBF0FBECDBFCF91DF910895DF939B
:1014F000CF93CDB7DEB780E993E00E94622D809153
:1015000090038637A1F40E940A2082E092E00E94B4
:10151000EB2082E060E00E94D61F82E192E00E9410
:10152000EB2080E06DE270E00E94B62567C18091FB
:1015300090038635A1F40E940A2082E092E00E9486
:10154000EB2082E060E00E94D61F82E292E00E94DF
:10155000EB2080E06AE570E00E94B6254FC18091E3
:1015600090038236A1F40E940A2082E092E00E9459
:10157000EB2082E060E00E94D61F82E392E00E94AE
:10158000EB2080E067E870E00E94B62537C18091CB
:1015900090038234A1F40E940A2082E092E00E942B
:1015A000EB2082E060E00E94D61F83E492E00E947C
:1015B000EB2080E064EB70E00E94B6251FC18091B3
:1015C00090038E36A1F40E940A2082E092E00E94ED
:1015D000EB2082E060E00E94D61F84E592E00E944A
:1015E000EB2080E061EE70E00E94B62507C180919B
:1015F00090038E34A1F40E940A2082E092E00E94BF
:10160000EB2082E060E00E94D61F85E692E00E9417
:10161000EB2080E06EE071E00E94B625EFC0809183
:1016200090038B36A1F40E940A2082E092E00E948F
:10163000EB2082E060E00E94D61F86E792E00E94E5
:10164000EB2080E06BE371E00E94B625D7C080916B
:1016500090038B34A1F40E940A2082E092E00E9461
:10166000EB2082E060E00E94D61F87E892E00E94B3
:10167000EB2080E068E671E00E94B625BFC0809153
:1016800090038F36A1F40E940A2088E992E00E941C
:10169000EB2082E060E00E94D61F82E192E00E948F
:1016A000EB2081E06DE270E00E94B625A7C080913A
:1016B00090038F34A1F40E940A2088E992E00E94EE
:1016C000EB2082E060E00E94D61F82E292E00E945E
:1016D000EB2081E06AE570E00E94B6258FC0809122
:1016E00090038037A1F40E940A2088E992E00E94CA
:1016F000EB2082E060E00E94D61F82E392E00E942D
:10170000EB2081E067E870E00E94B62577C0809109
:1017100090038035A1F40E940A2088E992E00E949B
:10172000EB2082E060E00E94D61F83E492E00E94FA
:10173000EB2081E064EB70E00E94B6255FC08091F1
:1017400090038636A1F40E940A2088E992E00E9464
:10175000EB2082E060E00E94D61F84E592E00E94C8
:10176000EB2081E061EE70E00E94B62547C08091D9
:1017700090038634A1F40E940A2088E992E00E9436
:10178000EB2082E060E00E94D61F85E692E00E9496
:10179000EB2081E06EE071E00E94B6252FC08091C1
:1017A00090038737A1F40E940A2088E992E00E9402
:1017B000EB2082E060E00E94D61F86E792E00E9464
:1017C000EB2081E06BE371E00E94B62517C08091A9
:1017D0009003873599F40E940A2088E992E00E94DC
:1017E000EB2082E060E00E94D61F87E892E00E9432
:1017F000EB2081E068E671E00E94B62580919003BD
:10180000803309F078CE0E940A20CF91DF910895AD
:101810000F931F93DF93CF93CDB7DEB7CE59D04050
:101820000FB6F894DEBF0FBECDBFFE01E456FF4FEA
:1018300081E0808380E993E00E94622D8091900393
:10184000833409F0D7C081E066E040E00E94A9152A
:1018500081E067E041E00E94A9150E940A2089EA20
:1018600092E00E94EB20FE01E956FF4F80E090E8F5
:10187000ABEBB4E480839183A283B3838E010D56D6
:101880001F4FFE01E956FF4F608171818281938174
:1018900020E030E04AEF54E40E941F02DC01CB015B
:1018A000F80180839183A283B383FE01ED56FF4F3D
:1018B000608171818281938120E030E040E85FE3C4
:1018C0000E942504882344F4FE01EF56FF4F81E077
:1018D00090E09183808364C0FE01ED56FF4F6081EC
:1018E00071818281938120E03FEF4FE757E40E94AE
:1018F000C50318160CF043C0FE01E956FF4F608186
:1019000071818281938120E030E040E251E40E94C5
:101910001F02DC01CB018E010F561F4FBC01CD0110
:101920000E944900DC01CB01F801918380831FC034
:10193000FE01E157FF4F88EC90E091838083FE0128
:10194000E157FF4F808191810197F1F7FE01E15747
:10195000FF4F91838083DE01AF56BF4FFE01EF56EC
:10196000FF4F80819181019711969C938E93FE0188
:10197000EF56FF4F808191810097D1F627C08E01ED
:101980000F561F4FFE01ED56FF4F6081718182811E
:1019900093810E944900DC01CB01F801918380838F
:1019A000DE01A357BF4FFE01EF56FF4F80819181AB
:1019B0008D939C93FE01E357FF4F808191810197A6
:1019C000F1F7FE01E357FF4F918380830E940A20C5
:1019D0008AEB92E00E94EB2082E060E00E94D61F3A
:1019E00087EC92E00E94EB2081E067E040E00E94FB
:1019F000A91535C780919003823509F01BCFFE01F0
:101A0000E456FF4F8081282F30E0C356DF4F3983E3
:101A10002883CD59D040C356DF4F88819981CD5955
:101A2000D0408330910509F4E1C1C356DF4FE8810E
:101A3000F981CD59D040E430F105A4F4C356DF4F0D
:101A400028813981CD59D0402130310551F1C3561B
:101A5000DF4F88819981CD59D0408230910509F4BA
:101A6000F4C0FDC6C356DF4FE881F981CD59D0409F
:101A7000E530F10509F4CAC4C356DF4F2881398126
:101A8000CD59D040253031050CF481C2C356DF4F0B
:101A900088819981CD59D0408630910509F460C67E
:101AA000DEC685ED92E00E94EB2082E060E00E94BD
:101AB000D61F85EE92E00E94EB20FE01E757FF4F14
:101AC00080E090E8ABEBB4E480839183A283B3839E
:101AD0008E010B571F4FFE01E757FF4F6081718149
:101AE0008281938120E030E04AEF54E40E941F029B
:101AF000DC01CB01F80180839183A283B383FE01D3
:101B0000EB57FF4F608171818281938120E030E04B
:101B100040E85FE30E942504882344F4FE01ED576A
:101B2000FF4F81E090E09183808364C0FE01EB571A
:101B3000FF4F608171818281938120E03FEF4FE709
:101B400057E40E94C50318160CF043C0FE01E75786
:101B5000FF4F608171818281938120E030E040E21B
:101B600051E40E941F02DC01CB018E010D571F4F73
:101B7000BC01CD010E944900DC01CB01F801918339
:101B800080831FC0FE01EF57FF4F88EC90E09183E8
:101B90008083FE01EF57FF4F808191810197F1F71C
:101BA000FE01EF57FF4F91838083DE01AD57BF4F9A
:101BB000FE01ED57FF4F80819181019711969C9313
:101BC0008E93FE01ED57FF4F808191810097D1F6F2
:101BD00027C08E010D571F4FFE01EB57FF4F60814D
:101BE0007181828193810E944900DC01CB01F8015F
:101BF00091838083DE01A158BF4FFE01ED57FF4F57
:101C0000808191818D939C93FE01E158FF4F8081EB
:101C100091810197F1F7FE01E158FF4F9183808395
:101C20000E940A2081EF92E00E94EB2081E066E0B2
:101C300041E00E94A915DE01A456BF4FFE01E45603
:101C4000FF4F80818F5F8C93F5CD0E940A2085ED38
:101C500092E00E94EB2082E060E00E94D61F85EEB9
:101C600092E00E94EB20FE01E558FF4F80E090E8F3
:101C7000ABEBB4E480839183A283B3838E010958D4
:101C80001F4FFE01E558FF4F608171818281938172
:101C900020E030E04AEF54E40E941F02DC01CB0157
:101CA000F80180839183A283B383FE01E958FF4F3B
:101CB000608171818281938120E030E040E85FE3C0
:101CC0000E942504882344F4FE01EB58FF4F81E075
:101CD00090E09183808364C0FE01E958FF4F6081EA
:101CE00071818281938120E03FEF4FE757E40E94AA
:101CF000C50318160CF043C0FE01E558FF4F608184
:101D000071818281938120E030E040E251E40E94C1
:101D10001F02DC01CB018E010B581F4FBC01CD010E
:101D20000E944900DC01CB01F801918380831FC030
:101D3000FE01ED58FF4F88EC90E091838083FE0117
:101D4000ED58FF4F808191810197F1F7FE01ED5829
:101D5000FF4F91838083DE01AB58BF4FFE01EB58EC
:101D6000FF4F80819181019711969C938E93FE0184
:101D7000EB58FF4F808191810097D1F627C08E01EB
:101D80000B581F4FFE01E958FF4F6081718182811E
:101D900093810E944900DC01CB01F801918380838B
:101DA000DE01AF58BF4FFE01EB58FF4F808191819C
:101DB0008D939C93FE01EF58FF4F80819181019795
:101DC000F1F7FE01EF58FF4F918380830E940A20B4
:101DD00081EF92E00E94EB20DE01A456BF4FFE018E
:101DE000E456FF4F80818F5F8C9324CD0E940A20A0
:101DF00085ED92E00E94EB2082E060E00E94D61F19
:101E000085EE92E00E94EB20FE01E359FF4F80E057
:101E100090E8ABEBB4E480839183A283B3838E011B
:101E200007591F4FFE01E359FF4F60817181828185
:101E3000938120E030E04AEF54E40E941F02DC016D
:101E4000CB01F80180839183A283B383FE01E7591C
:101E5000FF4F608171818281938120E030E040E812
:101E60005FE30E942504882344F4FE01E959FF4FF3
:101E700081E090E09183808364C0FE01E759FF4FC9
:101E8000608171818281938120E03FEF4FE757E4C9
:101E90000E94C50318160CF043C0FE01E359FF4F22
:101EA000608171818281938120E030E040E251E4E1
:101EB0000E941F02DC01CB018E0109591F4FBC019A
:101EC000CD010E944900DC01CB01F80191838083A0
:101ED0001FC0FE01EB59FF4F88EC90E09183808397
:101EE000FE01EB59FF4F808191810197F1F7FE01CF
:101EF000EB59FF4F91838083DE01A959BF4FFE014B
:101F0000E959FF4F80819181019711969C938E939F
:101F1000FE01E959FF4F808191810097D1F627C0DA
:101F20008E0109591F4FFE01E759FF4F60817181F2
:101F3000828193810E944900DC01CB01F8019183E9
:101F40008083DE01AD59BF4FFE01E959FF4F80810B
:101F500091818D939C93FE01ED59FF4F808191817A
:101F60000197F1F7FE01ED59FF4F918380830E94A5
:101F70000A20DE01A456BF4FFE01E456FF4F8081C8
:101F80008F5F8C9381EF92E00E94EB2053CC0E94F4
:101F90000A2081E093E00E94EB20FE01E15AFF4F0E
:101FA00080E090E8ABEBB4E480839183A283B383B9
:101FB0008E01055A1F4FFE01E15AFF4F608171816A
:101FC0008281938120E030E04AEF54E40E941F02B6
:101FD000DC01CB01F80180839183A283B383FE01EE
:101FE000E55AFF4F608171818281938120E030E06A
:101FF00040E85FE30E942504882344F4FE01E75A89
:10200000FF4F81E090E09183808364C0FE01E55A38
:10201000FF4F608171818281938120E03FEF4FE724
:1020200057E40E94C50318160CF043C0FE01E15AA4
:10203000FF4F608171818281938120E030E040E236
:1020400051E40E941F02DC01CB018E01075A1F4F91
:10205000BC01CD010E944900DC01CB01F801918354
:1020600080831FC0FE01E95AFF4F88EC90E0918306
:102070008083FE01E95AFF4F808191810197F1F73A
:10208000FE01E95AFF4F91838083DE01A75ABF4FBB
:10209000FE01E75AFF4F80819181019711969C9331
:1020A0008E93FE01E75AFF4F808191810097D1F610
:1020B00027C08E01075A1F4FFE01E55AFF4F60816E
:1020C0007181828193810E944900DC01CB01F8017A
:1020D00091838083DE01AB5ABF4FFE01E75AFF4F69
:1020E000808191818D939C93FE01EB5AFF4F8081FB
:1020F00091810197F1F7FE01EB5AFF4F91838083A5
:102100000E940A20DE01A456BF4FFE01E456FF4F95
:1021100080818F5F8C938CE093E00E94EB20FE0126
:10212000EF5AFF4F80E090E0AAE7B4E48083918308
:10213000A283B3838E01035B1F4FFE01EF5AFF4F53
:10214000608171818281938120E030E04AEF54E424
:102150000E941F02DC01CB01F80180839183A283DE
:10216000B383FE01E35BFF4F6081718182819381C4
:1021700020E030E040E85FE30E942504882344F437
:10218000FE01E55BFF4F81E090E09183808364C0B6
:10219000FE01E35BFF4F608171818281938120E0CA
:1021A0003FEF4FE757E40E94C50318160CF043C0F9
:1021B000FE01EF5AFF4F608171818281938120E09F
:1021C00030E040E251E40E941F02DC01CB018E01AD
:1021D000055B1F4FBC01CD010E944900DC01CB0112
:1021E000F801918380831FC0FE01E75BFF4F88ECFD
:1021F00090E091838083FE01E75BFF4F80819181B6
:102200000197F1F7FE01E75BFF4F91838083DE01C9
:10221000A55BBF4FFE01E55BFF4F80819181019778
:1022200011969C938E93FE01E55BFF4F8081918117
:102230000097D1F627C08E01055B1F4FFE01E35BBF
:10224000FF4F60817181828193810E944900DC018E
:10225000CB01F80191838083DE01A95BBF4FFE01B2
:10226000E55BFF4F808191818D939C93FE01E95B3B
:10227000FF4F808191810197F1F7FE01E95BFF4FEC
:10228000918380830E940A2081E066E041E00E9401
:10229000A915FE01E556FF4F81E08083A6C0FE012F
:1022A000E556FF4F8081882F90E0A0E0B0E0BC01B0
:1022B000CD010E94742481E065E041E00E94A915EF
:1022C000FE01ED5BFF4F80E090E0AAE7B4E480837D
:1022D0009183A283B3838E01015C1F4FFE01ED5BEE
:1022E000FF4F608171818281938120E030E04AEF6D
:1022F00054E40E941F02DC01CB01F801808391832A
:10230000A283B383FE01FF966081718182819381F4
:1023100020E030E040E85FE30E94250488232CF4AD
:1023200081E090E09EAF8DAF46C0FE01FF966081D8
:1023300071818281938120E03FEF4FE757E40E9453
:10234000C503181664F5FE01ED5BFF4F60817181D6
:102350008281938120E030E040E251E40E941F023C
:10236000DC01CB01BC01CD010E944900DC01CB01A5
:102370009EAF8DAF0FC088EC90E09CAF8BAF8BAD64
:102380009CAD0197F1F79CAF8BAF8DAD9EAD0197E2
:102390009EAF8DAF8DAD9EAD009769F716C0FE0163
:1023A000FF9660817181828193810E944900DC01E6
:1023B000CB019EAF8DAF8DAD9EAD9AAF89AF89AD8C
:1023C0009AAD0197F1F79AAF89AF81E065E040E0FF
:1023D0000E94A9150E940A20DE01A556BF4FFE01EA
:1023E000E556FF4F80818F5F8C93FE01E556FF4FCE
:1023F00080818B3008F453CF81E066E040E00E949A
:10240000A91581EF92E00E94EB2014CA0E940A20D5
:1024100081E093E00E94EB2080E090E8ABEBB4E435
:102420008DAB9EABAFABB8AF6DA97EA98FA998ADB0
:1024300020E030E04AEF54E40E941F02DC01CB01AF
:1024400089AB9AABABABBCAB69A97AA98BA99CA9A8
:1024500020E030E040E85FE30E94250488232CF46C
:1024600081E090E098AB8FA73FC069A97AA98BA9BA
:102470009CA920E03FEF4FE757E40E94C5031816E0
:102480004CF56DA97EA98FA998AD20E030E040E21F
:1024900051E40E941F02DC01CB01BC01CD010E946E
:1024A0004900DC01CB0198AB8FA70FC088EC90E00E
:1024B0009EA78DA78DA59EA50197F1F79EA78DA735
:1024C0008FA598A9019798AB8FA78FA598A900977A
:1024D00069F714C069A97AA98BA99CA90E9449002F
:1024E000DC01CB0198AB8FA78FA598A99CA78BA7E0
:1024F0008BA59CA50197F1F79CA78BA70E940A20AA
:10250000DE01A456BF4FFE01E456FF4F80818F5F6E
:102510008C9380E293E00E94EB2080E090E0AAE7B9
:10252000B4E48FA398A7A9A7BAA76FA178A589A596
:102530009AA520E030E04AEF54E40E941F02DC013B
:10254000CB018BA39CA3ADA3BEA36BA17CA18DA14A
:102550009EA120E030E040E85FE30E94250488234C
:102560002CF481E090E09AA389A33FC06BA17CA1E9
:102570008DA19EA120E03FEF4FE757E40E94C503E5
:1025800018164CF56FA178A589A59AA520E030E032
:1025900040E251E40E941F02DC01CB01BC01CD01ED
:1025A0000E944900DC01CB019AA389A30FC088ECEB
:1025B00090E098A38F8F8F8D98A10197F1F798A342
:1025C0008F8F89A19AA101979AA389A389A19AA122
:1025D000009769F714C06BA17CA18DA19EA10E94F8
:1025E0004900DC01CB019AA389A389A19AA19E8FFE
:1025F0008D8F8D8D9E8D0197F1F79E8F8D8F0E940F
:102600000A2081E066E041E00E94A915FE01E5563E
:10261000FF4F81E0808393C081E065E041E00E944C
:10262000A915FE01E556FF4F8081882F90E0A0E0BC
:10263000B0E0BC01CD010E94742480E090E0AAE7E4
:10264000B4E4898F9A8FAB8FBC8F698D7A8D8B8D17
:102650009C8D20E030E04AEF54E40E941F02DC0130
:10266000CB018D8B9E8BAF8BB88F6D897E898F89C7
:10267000988D20E030E040E85FE30E942504882345
:102680002CF481E090E09C8B8B8B3FC06D897E8920
:102690008F89988D20E03FEF4FE757E40E94C503F4
:1026A00018164CF5698D7A8D8B8D9C8D20E030E06D
:1026B00040E251E40E941F02DC01CB01BC01CD01CC
:1026C0000E944900DC01CB019C8B8B8B0FC088ECF6
:1026D00090E09A8B898B89899A890197F1F79A8B77
:1026E000898B8B899C8901979C8B8B8B8B899C898F
:1026F000009769F714C06D897E898F89988D0E9433
:102700004900DC01CB019C8B8B8B8B899C89988B3E
:102710008F878F8598890197F1F7988B8F8781E054
:1027200065E040E00E94A9150E940A20DE01A5563E
:10273000BF4FFE01E556FF4F80818F5F8C93FE01F6
:10274000E556FF4F80818F3108F466CF81E066E067
:1027500040E00E94A91581EF92E00E94EB206AC838
:102760000E940A2084E393E00E94EB2080E090E046
:10277000AAEFB4E48B879C87AD87BE876B857C8589
:102780008D859E8520E030E04AEF54E40E941F02D0
:10279000DC01CB018F839887A987BA876F81788501
:1027A00089859A8520E030E040E85FE30E942504B7
:1027B00088232CF481E090E09E838D833FC06F815D
:1027C000788589859A8520E03FEF4FE757E40E949E
:1027D000C50318164CF56B857C858D859E8520E09C
:1027E00030E040E251E40E941F02DC01CB01BC0159
:1027F000CD010E944900DC01CB019E838D830FC077
:1028000088EC90E09C838B838B819C810197F1F70E
:102810009C838B838D819E8101979E838D838D8187
:102820009E81009769F714C06F81788589859A85A4
:102830000E944900DC01CB019E838D838D819E81A6
:102840009A83898389819A810197F1F79A83898391
:102850000E940A2081E066E041E00E94A915C2566C
:10286000DF4F0FB6F894DEBF0FBECDBFCF91DF9123
:102870001F910F910895DF93CF93CDB7DEB7EAE3B1
:10288000F0E08CEF8083E7E3F0E08FEF8083E4E318
:10289000F0E08FEF8083E1E3F0E08FEF8083EBE304
:1028A000F0E01082E8E3F0E01082E5E3F0E010826F
:1028B000E2E3F0E01082CF91DF910895DF93CF93B0
:1028C00000D000D000D0CDB7DEB78A836B834C83B5
:1028D00081E089838A81843008F0E5C08B8188306B
:1028E00008F0E1C08A81282F30E03E832D838D815E
:1028F0009E818130910509F447C02D813E812230AF
:1029000031052CF48D819E81009771F0CDC02D8111
:102910003E812230310509F467C08D819E8183306C
:10292000910509F491C0C0C08C818823A9F4AAE361
:10293000B0E0EAE3F0E08081482F8B81282F30E07F
:1029400081E090E0022E02C0880F991F0A94E2F7FE
:10295000809584238C93A8C08C81813009F0A4C019
:10296000AAE3B0E0EAE3F0E08081482F8B81282FD2
:1029700030E081E090E0022E02C0880F991F0A9497
:10298000E2F7842B8C9390C08C818823A9F4A7E371
:10299000B0E0E7E3F0E08081482F8B81282F30E022
:1029A00081E090E0022E02C0880F991F0A94E2F79E
:1029B000809584238C9378C08C81813009F074C019
:1029C000A7E3B0E0E7E3F0E08081482F8B81282F78
:1029D00030E081E090E0022E02C0880F991F0A9437
:1029E000E2F7842B8C9360C08C818823A9F4A4E344
:1029F000B0E0E4E3F0E08081482F8B81282F30E0C5
:102A000081E090E0022E02C0880F991F0A94E2F73D
:102A1000809584238C9348C08C81813009F044C018
:102A2000A4E3B0E0E4E3F0E08081482F8B81282F1D
:102A300030E081E090E0022E02C0880F991F0A94D6
:102A4000E2F7842B8C9330C08C818823A9F4A1E316
:102A5000B0E0E1E3F0E08081482F8B81282F30E067
:102A600081E090E0022E02C0880F991F0A94E2F7DD
:102A7000809584238C9318C08C818130A9F4A1E3C4
:102A8000B0E0E1E3F0E08081482F8B81282F30E037
:102A900081E090E0022E02C0880F991F0A94E2F7AD
:102AA000842B8C9301C01982898126960FB6F894E5
:102AB000DEBF0FBECDBFCF91DF910895DF93CF93DF
:102AC00000D000D00F92CDB7DEB78A836B8381E050
:102AD00089838A81843098F58A81282F30E03D836C
:102AE0002C838C819D8181309105D1F02C813D8199
:102AF000223031052CF48C819D81009761F020C03B
:102B00002C813D812230310581F08C819D81833083
:102B1000910581F015C0EAE3F0E08B81808310C05D
:102B2000E7E3F0E08B8180830BC0E4E3F0E08B818E
:102B3000808306C0E1E3F0E08B81808301C01982CD
:102B400089810F900F900F900F900F90CF91DF9190
:102B50000895DF93CF9300D000D000D0CDB7DEB77B
:102B60008A836B834C8381E089838A81843008F077
:102B7000E5C08B81883008F0E1C08A81282F30E0E1
:102B80003E832D838D819E818130910509F447C05C
:102B90002D813E81223031052CF48D819E8100975C
:102BA00071F0CDC02D813E812230310509F467C01E
:102BB0008D819E818330910509F491C0C0C08C81C4
:102BC0008130A1F4ABE3B0E0EBE3F0E08081482F8B
:102BD0008B81282F30E081E090E0022E02C0880F28
:102BE000991F0A94E2F7842B8C93A9C08C818823C7
:102BF00009F0A5C0ABE3B0E0EBE3F0E08081482F43
:102C00008B81282F30E081E090E0022E02C0880FF7
:102C1000991F0A94E2F7809584238C9390C08C814D
:102C20008130A1F4A8E3B0E0E8E3F0E08081482F30
:102C30008B81282F30E081E090E0022E02C0880FC7
:102C4000991F0A94E2F7842B8C9379C08C81882396
:102C500009F075C0A8E3B0E0E8E3F0E08081482F18
:102C60008B81282F30E081E090E0022E02C0880F97
:102C7000991F0A94E2F7809584238C9360C08C811D
:102C80008130A1F4A5E3B0E0E5E3F0E08081482FD6
:102C90008B81282F30E081E090E0022E02C0880F67
:102CA000991F0A94E2F7842B8C9349C08C81882366
:102CB00009F045C0A5E3B0E0E5E3F0E08081482FEE
:102CC0008B81282F30E081E090E0022E02C0880F37
:102CD000991F0A94E2F7809584238C9330C08C81ED
:102CE0008130A1F4A2E3B0E0E2E3F0E08081482F7C
:102CF0008B81282F30E081E090E0022E02C0880F07
:102D0000991F0A94E2F7842B8C9319C08C81882335
:102D1000B1F4A2E3B0E0E2E3F0E08081482F8B81E0
:102D2000282F30E081E090E0022E02C0880F991F2A
:102D30000A94E2F7809584238C9301C019828981DB
:102D400026960FB6F894DEBF0FBECDBFCF91DF91B0
:102D50000895DF93CF9300D000D00F92CDB7DEB7A8
:102D60008A836B8381E089838A81843098F58A81A4
:102D7000282F30E03D832C838C819D81813091050B
:102D8000D1F02C813D81223031052CF48C819D8144
:102D9000009761F020C02C813D812230310581F007
:102DA0008C819D818330910581F015C0EBE3F0E0CB
:102DB0008B81808310C0E8E3F0E08B8180830BC0BF
:102DC000E5E3F0E08B81808306C0E2E3F0E08B81F5
:102DD000808301C0198289810F900F900F900F900E
:102DE0000F90CF91DF910895DF93CF9300D000D063
:102DF0000F92CDB7DEB78A836B8381E089838A81A6
:102E0000843008F073C08B81883008F06FC08A81ED
:102E1000282F30E03D832C838C819D81813091056A
:102E200049F12C813D81223031052CF48C819D812A
:102E3000009761F05CC02C813D812230310571F139
:102E40008C819D8183309105E9F151C0ABE3B0E005
:102E5000EBE3F0E08081482F8B81282F30E081E088
:102E600090E0022E02C0880F991F0A94E2F784278F
:102E70008C933DC0A8E3B0E0E8E3F0E08081482F08
:102E80008B81282F30E081E090E0022E02C0880F75
:102E9000991F0A94E2F784278C9329C0A5E3B0E038
:102EA000E5E3F0E08081482F8B81282F30E081E03E
:102EB00090E0022E02C0880F991F0A94E2F784273F
:102EC0008C9315C0A2E3B0E0E2E3F0E08081482FEC
:102ED0008B81282F30E081E090E0022E02C0880F25
:102EE000991F0A94E2F784278C9301C01982898183
:102EF0000F900F900F900F900F90CF91DF9108954A
:102F0000DF93CF93CDB7DEB727970FB6F894DEBF28
:102F10000FBECDBF8A836B835D834C8381E0898341
:102F20008A81843008F075C08B81883008F071C0C8
:102F30008A81282F30E03F832E834E815F8141308C
:102F4000510559F18E819F818230910534F42E8193
:102F50003F812115310569F05DC04E815F814230AE
:102F6000510579F18E819F818330910509F43DC02F
:102F700051C0E9E3F0E08081282F30E08B81882F79
:102F800090E0A90102C0559547958A95E2F7CA01DC
:102F90008170EC81FD8180833DC0E6E3F0E08081BB
:102FA000282F30E08B81882F90E0A90102C0559531
:102FB00047958A95E2F7CA018170EC81FD81808393
:102FC00029C0E3E3F0E08081282F30E08B81882F57
:102FD00090E0A90102C0559547958A95E2F7CA018C
:102FE0008170EC81FD81808315C0E0E3F0E0808199
:102FF000282F30E08B81882F90E0A90102C05595E1
:1030000047958A95E2F7CA018170EC81FD81808342
:1030100001C01982898127960FB6F894DEBF0FBED2
:10302000CDBFCF91DF910895DF93CF93CDB7DEB7BA
:103030006C970FB6F894DEBF0FBECDBF80E090E076
:10304000ACE0B2E4898F9A8FAB8FBC8F698D7A8D9B
:103050008B8D9C8D20E030E04AEF54E40E941F02EB
:10306000DC01CB018D8B9E8BAF8BB88F6D897E89F8
:103070008F89988D20E030E040E85FE30E942504CE
:1030800088232CF481E090E09C8B8B8B3FC06D8972
:103090007E898F89988D20E03FEF4FE757E40E94AB
:1030A000C50318164CF5698D7A8D8B8D9C8D20E0AB
:1030B00030E040E251E40E941F02DC01CB01BC0180
:1030C000CD010E944900DC01CB019C8B8B8B0FC092
:1030D00088EC90E09A8B898B89899A890197F1F71E
:1030E0009A8B898B8B899C8901979C8B8B8B8B8985
:1030F0009C89009769F714C06D897E898F89988DA6
:103100000E944900DC01CB019C8B8B8B8B899C89B5
:10311000988B8F878F8598890197F1F7988B8F8788
:1031200083E30E947B1C82E30E947B1C88E20E9456
:103130007B1C8CE00E947B1C86E00E947B1C81E053
:103140000E947B1C80E090E0A0E0B0E48B879C872D
:10315000AD87BE876B857C858D859E8520E030E0C0
:103160004AEF54E40E941F02DC01CB018F83988751
:10317000A987BA876F81788589859A8520E030E0B4
:1031800040E85FE30E94250488232CF481E090E06E
:103190009E838D833FC06F81788589859A8520E0E5
:1031A0003FEF4FE757E40E94C50318164CF56B85B7
:1031B0007C858D859E8520E030E040E251E40E94D0
:1031C0001F02DC01CB01BC01CD010E944900DC01E2
:1031D000CB019E838D830FC088EC90E09C838B8312
:1031E0008B819C810197F1F79C838B838D819E81DC
:1031F00001979E838D838D819E81009769F714C00E
:103200006F81788589859A850E944900DC01CB0110
:103210009E838D838D819E819A83898389819A8102
:103220000197F1F79A83898380E80E947B1C6C9652
:103230000FB6F894DEBF0FBECDBFCF91DF910895DA
:103240000F931F93DF93CF93CDB7DEB7C755D04011
:103250000FB6F894DEBF0FBECDBFFE01E95AFF4F97
:10326000808382E060E041E00E94A91582E061E095
:1032700040E00E94A915FE01E95AFF4F80E06081FD
:103280000E94A91682E062E041E00E94A915FE01B9
:10329000ED5AFF4F80E090E0A0E8BFE38083918388
:1032A000A283B3838E01015B1F4FFE01ED5AFF4FD6
:1032B00060817181828193812BEA3AEA4AE250E48B
:1032C0000E941F02DC01CB01F80180839183A2835D
:1032D000B383FE01E15BFF4F608171818281938145
:1032E00020E030E040E85FE30E942504882334F4C6
:1032F000FE01E25BFF4F81E08083E0C0FE01E15B05
:10330000FF4F608171818281938120E030E04FE73F
:1033100053E40E94C50318160CF0C0C0FE01ED5A1C
:10332000FF4F608171818281938120E030E04AE724
:1033300054E40E941903DC01CB01FE01E65BFF4F60
:1033400080839183A283B3838E010A5B1F4FFE01AA
:10335000E65BFF4F608171818281938120E030E0E4
:103360004AEF54E40E941F02DC01CB01F801808384
:103370009183A283B383FE01EA5BFF4F6081718179
:103380008281938120E030E040E85FE30E942504E1
:10339000882344F4FE01EC5BFF4F81E090E09183D1
:1033A000808364C0FE01EA5BFF4F6081718182818E
:1033B000938120E03FEF4FE757E40E94C5031816C2
:1033C0000CF043C0FE01E65BFF4F6081718182819A
:1033D000938120E030E040E251E40E941F02DC01D2
:1033E000CB018E010C5B1F4FBC01CD010E94490037
:1033F000DC01CB01F801918380831FC0FE01EE5BED
:10340000FF4F88EC90E091838083FE01EE5BFF4FDD
:10341000808191810197F1F7FE01EE5BFF4F91836F
:103420008083DE01AC5BBF4FFE01EC5BFF4F808110
:103430009181019711969C938E93FE01EC5BFF4F57
:10344000808191810097D1F642C08E010C5B1F4FA5
:10345000FE01EA5BFF4F60817181828193810E944E
:103460004900DC01CB01F80191838083DE01A05C7F
:10347000BF4FFE01EC5BFF4F8081918111969C93C1
:103480008E93FE01E05CFF4F808191810197F1F7FF
:10349000FE01E05CFF4F9183808319C08E01025BC7
:1034A0001F4FFE01E15BFF4F60817181828193813B
:1034B0000E944900DC01CB01F8018083FE01E25B40
:1034C000FF4F80818FAF8FAD8A95F1F78FAF82E08C
:1034D00062E040E00E94A91580E090E0A8E4B3E437
:1034E0008BAF9CAFADAFBEAF6BAD7CAD8DAD9EADC8
:1034F0002BEA3AEA4AE250E40E941F02DC01CB01C7
:103500008FAB98AFA9AFBAAF6FA978AD89AD9AADBF
:1035100020E030E040E85FE30E94250488231CF4AB
:1035200081E08EAB91C06FA978AD89AD9AAD20E0F6
:1035300030E04FE753E40E94C50318160CF07BC03F
:103540006BAD7CAD8DAD9EAD20E030E04AE754E43C
:103550000E941903DC01CB018AAB9BABACABBDABCA
:103560006AA97BA98CA99DA920E030E04AEF54E428
:103570000E941F02DC01CB018EA79FA7A8ABB9ABAD
:103580006EA57FA588A999A920E030E040E85FE317
:103590000E94250488232CF481E090E09DA78CA74D
:1035A0003FC06EA57FA588A999A920E03FEF4FE70E
:1035B00057E40E94C50318164CF56AA97BA98CA98B
:1035C0009DA920E030E040E251E40E941F02DC01AE
:1035D000CB01BC01CD010E944900DC01CB019DA7BC
:1035E0008CA70FC088EC90E09BA78AA78AA59BA513
:1035F0000197F1F79BA78AA78CA59DA501979DA789
:103600008CA78CA59DA5009769F724C06EA57FA502
:1036100088A999A90E944900DC01CB019DA78CA72C
:103620008CA59DA599A788A788A599A50197F1F7CD
:1036300099A788A70FC06FA978AD89AD9AAD0E94F0
:103640004900DC01CB018EAB8EA98FA38FA18A9597
:10365000F1F78FA3FE01E95AFF4F8081982F9295D1
:10366000907F80E0692F0E94A91682E062E041E02D
:103670000E94A91580E090E0A0E8BFE38BA39CA383
:10368000ADA3BEA36BA17CA18DA19EA12BEA3AEABA
:103690004AE250E40E941F02DC01CB018F8F98A305
:1036A000A9A3BAA36F8D78A189A19AA120E030E0E7
:1036B00040E85FE30E94250488231CF481E08E8F9C
:1036C00091C06F8D78A189A19AA120E030E04FE7E9
:1036D00053E40E94C50318160CF07BC06BA17CA1BB
:1036E0008DA19EA120E030E04AE754E40E94190336
:1036F000DC01CB018A8F9B8FAC8FBD8F6A8D7B8D58
:103700008C8D9D8D20E030E04AEF54E40E941F0232
:10371000DC01CB018E8B9F8BA88FB98F6E897F893F
:10372000888D998D20E030E040E85FE30E94250419
:1037300088232CF481E090E09D8B8C8B3FC06E89B8
:103740007F89888D998D20E03FEF4FE757E40E94F5
:10375000C50318164CF56A8D7B8D8C8D9D8D20E0F0
:1037600030E040E251E40E941F02DC01CB01BC01C9
:10377000CD010E944900DC01CB019D8B8C8B0FC0D9
:1037800088EC90E09B8B8A8B8A899B890197F1F763
:103790009B8B8A8B8C899D8901979D8B8C8B8C89C7
:1037A0009D89009769F724C06E897F89888D998DDE
:1037B0000E944900DC01CB019D8B8C8B8C899D89FB
:1037C000998B888B888999890197F1F7998B888BD8
:1037D0000FC06F8D78A189A19AA10E944900DC01D8
:1037E000CB018E8F8E8D8F878F858A95F1F78F878E
:1037F00082E062E040E00E94A91580E090E0A0E055
:10380000B0E48B879C87AD87BE876B857C858D8573
:103810009E8520E030E04AEF54E40E941F02DC0164
:10382000CB018F839887A987BA876F81788589852F
:103830009A8520E030E040E85FE30E942504882379
:103840002CF481E090E09E838D833FC06F8178856A
:1038500089859A8520E03FEF4FE757E40E94C50332
:1038600018164CF56B857C858D859E8520E030E0B3
:1038700040E251E40E941F02DC01CB01BC01CD01FA
:103880000E944900DC01CB019E838D830FC088EC30
:1038900090E09C838B838B819C810197F1F79C83C3
:1038A0008B838D819E8101979E838D838D819E81E7
:1038B000009769F714C06F81788589859A850E9481
:1038C0004900DC01CB019E838D838D819E819A838B
:1038D000898389819A810197F1F79A838983C95AEB
:1038E000DF4F0FB6F894DEBF0FBECDBFCF91DF9193
:1038F0001F910F9108950F931F93DF93CF93CDB72F
:10390000DEB7C755D0400FB6F894DEBF0FBECDBFAF
:10391000FE01E95AFF4F808382E060E040E00E94B0
:10392000A91582E061E040E00E94A915FE01E95A74
:10393000FF4F80E060810E94A91682E062E041E0D2
:103940000E94A915FE01ED5AFF4F80E090E0A0E82B
:10395000BFE380839183A283B3838E01015B1F4FFA
:10396000FE01ED5AFF4F60817181828193812BEAC4
:103970003AEA4AE250E40E941F02DC01CB01F8015E
:1039800080839183A283B383FE01E15BFF4F60815B
:1039900071818281938120E030E040E85FE30E9402
:1039A0002504882334F4FE01E25BFF4F81E080832D
:1039B000E0C0FE01E15BFF4F6081718182819381F4
:1039C00020E030E04FE753E40E94C50318160CF0E6
:1039D000C0C0FE01ED5AFF4F6081718182819381E9
:1039E00020E030E04AE754E40E941903DC01CB01F7
:1039F000FE01E65BFF4F80839183A283B3838E0138
:103A00000A5B1F4FFE01E65BFF4F6081718182817F
:103A1000938120E030E04AEF54E40E941F02DC0171
:103A2000CB01F80180839183A283B383FE01EA5B1B
:103A3000FF4F608171818281938120E030E040E816
:103A40005FE30E942504882344F4FE01EC5BFF4FF2
:103A500081E090E09183808364C0FE01EA5BFF4FC8
:103A6000608171818281938120E03FEF4FE757E4CD
:103A70000E94C50318160CF043C0FE01E65BFF4F21
:103A8000608171818281938120E030E040E251E4E5
:103A90000E941F02DC01CB018E010C5B1F4FBC0199
:103AA000CD010E944900DC01CB01F80191838083A4
:103AB0001FC0FE01EE5BFF4F88EC90E09183808396
:103AC000FE01EE5BFF4F808191810197F1F7FE01CE
:103AD000EE5BFF4F91838083DE01AC5BBF4FFE0145
:103AE000EC5BFF4F80819181019711969C938E939F
:103AF000FE01EC5BFF4F808191810097D1F642C0BF
:103B00008E010C5B1F4FFE01EA5BFF4F60817181EC
:103B1000828193810E944900DC01CB01F8019183ED
:103B20008083DE01A05CBF4FFE01EC5BFF4F808114
:103B3000918111969C938E93FE01E05CFF4F8081F2
:103B400091810197F1F7FE01E05CFF4F9183808343
:103B500019C08E01025B1F4FFE01E15BFF4F6081C8
:103B60007181828193810E944900DC01CB01F801BF
:103B70008083FE01E25BFF4F80818FAF8FAD8A951E
:103B8000F1F78FAF82E062E040E00E94A91580E08B
:103B900090E0A8E4B3E48BAF9CAFADAFBEAF6BAD2C
:103BA0007CAD8DAD9EAD2BEA3AEA4AE250E40E942C
:103BB0001F02DC01CB018FAB98AFA9AFBAAF6FA9E1
:103BC00078AD89AD9AAD20E030E040E85FE30E9437
:103BD000250488231CF481E08EAB91C06FA978ADD9
:103BE00089AD9AAD20E030E04FE753E40E94C50371
:103BF00018160CF07BC06BAD7CAD8DAD9EAD20E09A
:103C000030E04AE754E40E941903DC01CB018AAB9F
:103C10009BABACABBDAB6AA97BA98CA99DA920E0ED
:103C200030E04AEF54E40E941F02DC01CB018EA772
:103C30009FA7A8ABB9AB6EA57FA588A999A920E0DD
:103C400030E040E85FE30E94250488232CF481E003
:103C500090E09DA78CA73FC06EA57FA588A999A9D4
:103C600020E03FEF4FE757E40E94C50318164CF5DC
:103C70006AA97BA98CA99DA920E030E040E251E42B
:103C80000E941F02DC01CB01BC01CD010E94490052
:103C9000DC01CB019DA78CA70FC088EC90E09BA70F
:103CA0008AA78AA59BA50197F1F79BA78AA78CA550
:103CB0009DA501979DA78CA78CA59DA5009769F749
:103CC00024C06EA57FA588A999A90E944900DC019E
:103CD000CB019DA78CA78CA59DA599A788A788A592
:103CE00099A50197F1F799A788A70FC06FA978AD9B
:103CF00089AD9AAD0E944900DC01CB018EAB8EA943
:103D00008FA38FA18A95F1F78FA3FE01E95AFF4F88
:103D10008081982F9295907F80E0692F0E94A9164C
:103D200082E062E041E00E94A91580E090E0A0E816
:103D3000BFE38BA39CA3ADA3BEA36BA17CA18DA16C
:103D40009EA12BEA3AEA4AE250E40E941F02DC01FB
:103D5000CB018F8F98A3A9A3BAA36F8D78A189A156
:103D60009AA120E030E040E85FE30E942504882328
:103D70001CF481E08E8F91C06F8D78A189A19AA1EA
:103D800020E030E04FE753E40E94C50318160CF022
:103D90007BC06BA17CA18DA19EA120E030E04AE711
:103DA00054E40E941903DC01CB018A8F9B8FAC8FF6
:103DB000BD8F6A8D7B8D8C8D9D8D20E030E04AEF2C
:103DC00054E40E941F02DC01CB018E8B9F8BA88FD5
:103DD000B98F6E897F89888D998D20E030E040E829
:103DE0005FE30E94250488232CF481E090E09D8B02
:103DF0008C8B3FC06E897F89888D998D20E03FEF45
:103E00004FE757E40E94C50318164CF56A8D7B8D69
:103E10008C8D9D8D20E030E040E251E40E941F0235
:103E2000DC01CB01BC01CD010E944900DC01CB01CA
:103E30009D8B8C8B0FC088EC90E09B8B8A8B8A8942
:103E40009B890197F1F79B8B8A8B8C899D890197C0
:103E50009D8B8C8B8C899D89009769F724C06E8916
:103E60007F89888D998D0E944900DC01CB019D8B53
:103E70008C8B8C899D89998B888B888999890197EE
:103E8000F1F7998B888B0FC06F8D78A189A19AA1CA
:103E90000E944900DC01CB018E8F8E8D8F878F852C
:103EA0008A95F1F78F8782E062E040E00E94A915D1
:103EB00080E090E0A0E0B0E48B879C87AD87BE8770
:103EC0006B857C858D859E8520E030E04AEF54E44B
:103ED0000E941F02DC01CB018F839887A987BA87D4
:103EE0006F81788589859A8520E030E040E85FE33E
:103EF0000E94250488232CF481E090E09E838D832A
:103F00003FC06F81788589859A8520E03FEF4FE734
:103F100057E40E94C50318164CF56B857C858D858A
:103F20009E8520E030E040E251E40E941F02DC0167
:103F3000CB01BC01CD010E944900DC01CB019E8375
:103F40008D830FC088EC90E09C838B838B819C8158
:103F50000197F1F79C838B838D819E8101979E83CE
:103F60008D838D819E81009769F714C06F8178855C
:103F700089859A850E944900DC01CB019E838D834F
:103F80008D819E819A83898389819A810197F1F736
:103F90009A838983C95ADF4F0FB6F894DEBF0FBEEC
:103FA000CDBFCF91DF911F910F910895DF93CF93F4
:103FB00000D000D00F92CDB7DEB78A836B8381E04B
:103FC00089838B818832E0F48A81282F30E03D8319
:103FD0002C838C819D818130910531F02C813D8134
:103FE0002230310531F00AC08B8180580E947B1C41
:103FF00008C08B8180540E947B1C03C0198201C0C1
:10400000198289810F900F900F900F900F90CF9190
:10401000DF910895DF93CF93CDB7DEB72E970FB61C
:10402000F894DEBF0FBECDBF81E00E947B1C80E014
:1040300090E0A0E0B0E48B879C87AD87BE876B855E
:104040007C858D859E8520E030E04AEF54E40E9417
:104050001F02DC01CB018F839887A987BA876F8104
:10406000788589859A8520E030E040E85FE30E940A
:10407000250488232CF481E090E09E838D833FC04B
:104080006F81788589859A8520E03FEF4FE757E477
:104090000E94C50318164CF56B857C858D859E8521
:1040A00020E030E040E251E40E941F02DC01CB013D
:1040B000BC01CD010E944900DC01CB019E838D83B0
:1040C0000FC088EC90E09C838B838B819C8101974F
:1040D000F1F79C838B838D819E8101979E838D83D5
:1040E0008D819E81009769F714C06F8178858985DD
:1040F0009A850E944900DC01CB019E838D838D81CE
:104100009E819A83898389819A810197F1F79A83A5
:1041100089832E960FB6F894DEBF0FBECDBFCF9128
:10412000DF910895DF93CF93CDB7DEB728970FB611
:10413000F894DEBF0FBECDBF8B836C838C81813042
:10414000C1F48B81282F30E038872F838F819885A9
:104150008130910531F02F8138852230310529F0E9
:1041600031C088E10E947B1C2DC08CE10E947B1C29
:1041700029C08B81282F30E03E832D838D819E8145
:104180008130910531F02D813E812230310571F071
:1041900019C01A8206C088E10E947B1C8A818F5F49
:1041A0008A839A818C819817B0F30CC0198206C05B
:1041B0008CE10E947B1C89818F5F898399818C812E
:1041C0009817B0F328960FB6F894DEBF0FBECDBF98
:1041D000CF91DF910895DF93CF9300D0CDB7DEB7B5
:1041E0009A8389830BC0E981FA81208189819A8130
:1041F00001969A838983822F0E942019E981FA818E
:104200008081882381F70F900F90CF91DF910895DF
:104210000F931F93DF93CF93CDB7DEB7C655D04032
:104220000FB6F894DEBF0FBECDBFFE01EB5AFF4FB5
:1042300091838083FE01EB5AFF4F808191810E9420
:10424000EB20FE01EF5AFF4F80E090E0AAE7B4E4D4
:1042500080839183A283B3838E01035B1F4FFE0192
:10426000EF5AFF4F608171818281938120E030E0BD
:104270004AEF54E40E941F02DC01CB01F801808365
:104280009183A283B383FE01E35BFF4F6081718161
:104290008281938120E030E040E85FE30E942504C2
:1042A000882344F4FE01E55BFF4F81E090E09183B9
:1042B000808364C0FE01E35BFF4F60817181828176
:1042C000938120E03FEF4FE757E40E94C5031816A3
:1042D0000CF043C0FE01EF5AFF4F60817181828173
:1042E000938120E030E040E251E40E941F02DC01B3
:1042F000CB018E01055B1F4FBC01CD010E9449001F
:10430000DC01CB01F801918380831FC0FE01E75BD4
:10431000FF4F88EC90E091838083FE01E75BFF4FC5
:10432000808191810197F1F7FE01E75BFF4F918357
:104330008083DE01A55BBF4FFE01E55BFF4F8081FF
:104340009181019711969C938E93FE01E55BFF4F3F
:10435000808191810097D1F627C08E01055B1F4FA8
:10436000FE01E35BFF4F60817181828193810E9436
:104370004900DC01CB01F80191838083DE01A95B58
:10438000BF4FFE01E55BFF4F808191818D939C9330
:10439000FE01E95BFF4F808191810197F1F7FE01FA
:1043A000E95BFF4F918380830E940A2082E064E0F2
:1043B0000E94D61FFE01EB5AFF4F808191810E941F
:1043C000EB20FE01ED5BFF4F80E090E0AAE7B4E454
:1043D00080839183A283B3838E01015C1F4FFE0112
:1043E000ED5BFF4F608171818281938120E030E03D
:1043F0004AEF54E40E941F02DC01CB01F8018083E4
:104400009183A283B383FE01FF96608171818281D3
:10441000938120E030E040E85FE30E942504882398
:104420002CF481E090E09EAF8DAF46C0FE01FF9678
:10443000608171818281938120E03FEF4FE757E4F3
:104440000E94C503181664F5FE01ED5BFF4F608105
:1044500071818281938120E030E040E251E40E944A
:104460001F02DC01CB01BC01CD010E944900DC012F
:10447000CB019EAF8DAF0FC088EC90E09CAF8BAFAF
:104480008BAD9CAD0197F1F79CAF8BAF8DAD9EAD21
:1044900001979EAF8DAF8DAD9EAD009769F716C0A9
:1044A000FE01FF9660817181828193810E944900A3
:1044B000DC01CB019EAF8DAF8DAD9EAD9AAF89AFC4
:1044C00089AD9AAD0197F1F79AAF89AF0E940A20A2
:1044D00081E068E00E94D61FFE01EB5AFF4F808109
:1044E00091810E94EB2080E090E0AAE7B4E48DABDC
:1044F0009EABAFABB8AF6DA97EA98FA998AD20E0F8
:1045000030E04AEF54E40E941F02DC01CB0189AB8A
:104510009AABABABBCAB69A97AA98BA99CA920E0EB
:1045200030E040E85FE30E94250488232CF481E01A
:1045300090E098AB8FA73FC069A97AA98BA99CA9E5
:1045400020E03FEF4FE757E40E94C50318164CF5F3
:104550006DA97EA98FA998AD20E030E040E251E43A
:104560000E941F02DC01CB01BC01CD010E94490069
:10457000DC01CB0198AB8FA70FC088EC90E09EA721
:104580008DA78DA59EA50197F1F79EA78DA78FA555
:1045900098A9019798AB8FA78FA598A9009769F75D
:1045A00014C069A97AA98BA99CA90E944900DC01C1
:1045B000CB0198AB8FA78FA598A99CA78BA78BA59C
:1045C0009CA50197F1F79CA78BA70E940A2082E087
:1045D0006CE00E94D61FFE01EB5AFF4F8081918153
:1045E0000E94EB2080E090E0AAE7B4E48FA398A7B4
:1045F000A9A7BAA76FA178A589A59AA520E030E060
:104600004AEF54E40E941F02DC01CB018BA39CA360
:10461000ADA3BEA36BA17CA18DA19EA120E030E043
:1046200040E85FE30E94250488232CF481E090E0B9
:104630009AA389A33FC06BA17CA18DA19EA120E07C
:104640003FEF4FE757E40E94C50318164CF56FA1E2
:1046500078A589A59AA520E030E040E251E40E94C7
:104660001F02DC01CB01BC01CD010E944900DC012D
:10467000CB019AA389A30FC088EC90E098A38F8FF9
:104680008F8D98A10197F1F798A38F8F89A19AA197
:1046900001979AA389A389A19AA1009769F714C0E9
:1046A0006BA17CA18DA19EA10E944900DC01CB01E0
:1046B0009AA389A389A19AA19E8F8D8F8D8D9E8D9E
:1046C0000197F1F79E8F8D8F0E940A2081E06EE0A6
:1046D0000E94D61FFE01EB5AFF4F808191810E94FC
:1046E000EB2080E090E0AAE7B4E4898F9A8FAB8F4B
:1046F000BC8F698D7A8D8B8D9C8D20E030E04AEFE8
:1047000054E40E941F02DC01CB018D8B9E8BAF8B8A
:10471000B88F6D897E898F89988D20E030E040E8E0
:104720005FE30E94250488232CF481E090E09C8BB9
:104730008B8B3FC06D897E898F89988D20E03FEFFC
:104740004FE757E40E94C50318164CF5698D7A8D22
:104750008B8D9C8D20E030E040E251E40E941F02EE
:10476000DC01CB01BC01CD010E944900DC01CB0181
:104770009C8B8B8B0FC088EC90E09A8B898B8989FE
:104780009A890197F1F79A8B898B8B899C8901977C
:104790009C8B8B8B8B899C89009769F714C06D89E2
:1047A0007E898F89988D0E944900DC01CB019C8B0A
:1047B0008B8B8B899C89988B8F878F8598890197A4
:1047C000F1F7988B8F870E940A2082E060E10E94B7
:1047D000D61FFE01EB5AFF4F808191810E94EB2092
:1047E00080E090E0AAE7B4E48B879C87AD87BE8722
:1047F0006B857C858D859E8520E030E04AEF54E412
:104800000E941F02DC01CB018F839887A987BA879A
:104810006F81788589859A8520E030E040E85FE304
:104820000E94250488232CF481E090E09E838D83F0
:104830003FC06F81788589859A8520E03FEF4FE7FB
:1048400057E40E94C50318164CF56B857C858D8551
:104850009E8520E030E040E251E40E941F02DC012E
:10486000CB01BC01CD010E944900DC01CB019E833C
:104870008D830FC088EC90E09C838B838B819C811F
:104880000197F1F79C838B838D819E8101979E8395
:104890008D838D819E81009769F714C06F81788523
:1048A00089859A850E944900DC01CB019E838D8316
:1048B0008D819E819A83898389819A810197F1F7FD
:1048C0009A8389830E940A2081E060E00E94D61FBB
:1048D000CA5ADF4F0FB6F894DEBF0FBECDBFCF91DF
:1048E000DF911F910F910895DF93CF93CDB7DEB77E
:1048F00068970FB6F894DEBF0FBECDBF6D8B7E8B71
:104900008F8B988F198A1A8A1B8A1C8A1D861E868D
:104910001F86188A19861A861B861C868D899E8991
:10492000AF89B88D89839A83AB83BC838D899E8937
:10493000AF89B88D0097A105B10521F480E30E94ED
:104940002019D4C08FEF9FEFAFEFBFEF8D839E8311
:10495000AF83B8872FC089819A81AB81BC812AE05F
:1049600030E040E050E0BC01CD010E94122EDC019D
:10497000CB0189879A87AB87BC8789819A81AB8174
:10498000BC812AE030E040E050E0BC01CD010E9453
:10499000122EDA01C90189839A83AB83BC838D818E
:1049A0009E81AF81B8850196A11DB11D8D839E8327
:1049B000AF83B88789859A85AB85BC850097A105AB
:1049C000B10549F23EC08D899E89AF89B88D2AE034
:1049D00030E040E050E0BC01CD010E94122EDC012D
:1049E000CB01898B9A8BAB8BBC8B8D859E85AF85DC
:1049F000B8892AE030E040E050E0BC01CD010E94DF
:104A0000DF2D9B01AC0189899A89AB89BC89820F12
:104A1000931FA41FB51F8D879E87AF87B88B8D8985
:104A20009E89AF89B88D2AE030E040E050E0BC01BB
:104A3000CD010E94122EDA01C9018D8B9E8BAF8BA6
:104A4000B88F8D899E89AF89B88D0097A105B10572
:104A500009F0B9CF19861A861B861C8628C08D8559
:104A60009E85AF85B8892AE030E040E050E0BC0187
:104A7000CD010E94122EDC01CB0189879A87AB877A
:104A8000BC878985805D0E9420198D859E85AF85B4
:104A9000B8892AE030E040E050E0BC01CD010E943E
:104AA000122EDA01C9018D879E87AF87B88B8D855D
:104AB0009E85AF85B8890097A105B10581F60EC026
:104AC00080E30E9420198D819E81AF81B885019776
:104AD000A109B1098D839E83AF83B8878D819E81A3
:104AE000AF81B8850097A105B10551F768960FB65B
:104AF000F894DEBF0FBECDBFCF91DF910895DF9355
:104B0000CF93CDB7DEB70E94852BCF91DF9108956B
:104B10000F931F93DF93CF930F92CDB7DEB78983A7
:104B20000AE410E08981882F90E0A0E0B0E028EE50
:104B300033E040E050E0BC01CD010E94DF2DDC01FC
:104B4000CB0124EB30E040E050E0BC01CD010E94FD
:104B5000122EDA01C90189519C4FF801918380839B
:104B60000F90CF91DF911F910F9108950F931F9395
:104B7000DF93CF93CDB7DEB7CF57D0400FB6F894C1
:104B8000DEBF0FBECDBFFE01E358FF4F8083FE01A5
:104B9000E258FF4F71836083FE01E258FF4F80812E
:104BA0009181CC01A0E0B0E0072E7BE0880F991F37
:104BB000AA1FBB1F7A95D1F7702D8E0107581F4F82
:104BC00028E631E040E050E0BC01CD010E94122E09
:104BD000DA01C901F80180839183A283B3839E0126
:104BE0002B583F4FFE01E758FF4F80819181A281F2
:104BF000B381B695A79597958795B695A7959795FF
:104C00008795F90180839183A283B383FE01E358E2
:104C1000FF4F8081813009F01EC3FE01EF58FF4F26
:104C2000108211821282138200C382E063E040E0AE
:104C30000E94A91582E064E041E00E94A91582E08B
:104C400065E041E00E94A91582E066E041E00E9433
:104C5000A915FE01E359FF4F80E090E0A0E2B1E426
:104C600080839183A283B3838E0107591F4FFE0176
:104C7000E359FF4F608171818281938120E030E0B0
:104C80004AEF54E40E941F02DC01CB01F80180834B
:104C90009183A283B383FE01E759FF4F6081718145
:104CA0008281938120E030E040E85FE30E942504A8
:104CB000882344F4FE01E959FF4F81E090E091839D
:104CC000808364C0FE01E759FF4F6081718182815A
:104CD000938120E03FEF4FE757E40E94C503181689
:104CE0000CF043C0FE01E359FF4F60817181828166
:104CF000938120E030E040E251E40E941F02DC0199
:104D0000CB018E0109591F4FBC01CD010E94490002
:104D1000DC01CB01F801918380831FC0FE01EB59B8
:104D2000FF4F88EC90E091838083FE01EB59FF4FA9
:104D3000808191810197F1F7FE01EB59FF4F91833B
:104D40008083DE01A959BF4FFE01E959FF4F8081E1
:104D50009181019711969C938E93FE01E959FF4F23
:104D6000808191810097D1F627C08E0109591F4F8C
:104D7000FE01E759FF4F60817181828193810E941A
:104D80004900DC01CB01F80191838083DE01AD593C
:104D9000BF4FFE01E959FF4F808191818D939C9314
:104DA000FE01ED59FF4F808191810197F1F7FE01DE
:104DB000ED59FF4F9183808382E063E041E00E94E0
:104DC000A91582E064E040E00E94A91582E065E058
:104DD00041E00E94A91582E066E041E00E94A91529
:104DE000FE01E15AFF4F80E090E0A0E2B1E4808351
:104DF0009183A283B3838E01055A1F4FFE01E15AAE
:104E0000FF4F608171818281938120E030E04AEF21
:104E100054E40E941F02DC01CB01F80180839183DE
:104E2000A283B383FE01E55AFF4F608171818281C5
:104E3000938120E030E040E85FE30E94250488236E
:104E400044F4FE01E75AFF4F81E090E091838083B4
:104E500064C0FE01E55AFF4F6081718182819381B8
:104E600020E03FEF4FE757E40E94C50318160CF00F
:104E700043C0FE01E15AFF4F6081718182819381BD
:104E800020E030E040E251E40E941F02DC01CB014F
:104E90008E01075A1F4FBC01CD010E944900DC0161
:104EA000CB01F801918380831FC0FE01E95AFF4FB7
:104EB00088EC90E091838083FE01E95AFF4F808166
:104EC00091810197F1F7FE01E95AFF4F91838083A9
:104ED000DE01A75ABF4FFE01E75AFF4F8081918143
:104EE000019711969C938E93FE01E75AFF4F8081A4
:104EF00091810097D1F627C08E01075A1F4FFE01FE
:104F0000E55AFF4F60817181828193810E9449003F
:104F1000DC01CB01F80191838083DE01AB5ABF4FE6
:104F2000FE01E75AFF4F808191818D939C93FE0192
:104F3000EB5AFF4F808191810197F1F7FE01EB5A07
:104F4000FF4F9183808382E063E041E00E94A915D6
:104F500082E064E041E00E94A91582E065E040E063
:104F60000E94A91582E066E041E00E94A915FE01B9
:104F7000EF5AFF4F80E090E0A0E2B1E4808391839C
:104F8000A283B3838E01035B1F4FFE01EF5AFF4FD5
:104F9000608171818281938120E030E04AEF54E4A6
:104FA0000E941F02DC01CB01F80180839183A28360
:104FB000B383FE01E35BFF4F608171818281938146
:104FC00020E030E040E85FE30E942504882344F4B9
:104FD000FE01E55BFF4F81E090E09183808364C038
:104FE000FE01E35BFF4F608171818281938120E04C
:104FF0003FEF4FE757E40E94C50318160CF043C07B
:10500000FE01EF5AFF4F608171818281938120E020
:1050100030E040E251E40E941F02DC01CB018E012E
:10502000055B1F4FBC01CD010E944900DC01CB0193
:10503000F801918380831FC0FE01E75BFF4F88EC7E
:1050400090E091838083FE01E75BFF4F8081918137
:105050000197F1F7FE01E75BFF4F91838083DE014B
:10506000A55BBF4FFE01E55BFF4F808191810197FA
:1050700011969C938E93FE01E55BFF4F8081918199
:105080000097D1F627C08E01055B1F4FFE01E35B41
:10509000FF4F60817181828193810E944900DC0110
:1050A000CB01F80191838083DE01A95BBF4FFE0134
:1050B000E55BFF4F808191818D939C93FE01E95BBD
:1050C000FF4F808191810197F1F7FE01E95BFF4F6E
:1050D0009183808382E063E041E00E94A91582E031
:1050E00064E041E00E94A91582E065E041E00E9491
:1050F000A91582E066E040E00E94A915FE01ED5B83
:10510000FF4F80E090E0A0E2B1E480839183A2832E
:10511000B3838E01015C1F4FFE01ED5BFF4F608189
:1051200071818281938120E030E04AEF54E40E9453
:105130001F02DC01CB01F80180839183A283B3833A
:10514000FE01FF96608171818281938120E030E0D1
:1051500040E85FE30E94250488232CF481E090E07E
:105160009EAF8DAF46C0FE01FF9660817181828146
:10517000938120E03FEF4FE757E40E94C5031816E4
:1051800064F5FE01ED5BFF4F608171818281938147
:1051900020E030E040E251E40E941F02DC01CB013C
:1051A000BC01CD010E944900DC01CB019EAF8DAF57
:1051B0000FC088EC90E09CAF8BAF8BAD9CAD01979E
:1051C000F1F79CAF8BAF8DAD9EAD01979EAF8DAFCC
:1051D0008DAD9EAD009769F716C0FE01FF96608108
:1051E0007181828193810E944900DC01CB019EAFD5
:1051F0008DAF8DAD9EAD9AAF89AF89AD9AAD019758
:10520000F1F79AAF89AF9E012F583F4FFE01EF583B
:10521000FF4F80819181A281B3810196A11DB11DB3
:10522000F90180839183A283B383FE01EF58FF4F7E
:10523000DE01AB58BF4F20813181428153818D9176
:105240009D910D90BC91A02D281739074A075B0747
:1052500008F4EBCC4EC2FE01E358FF4F8081882357
:1052600009F047C2FE01EF58FF4F108211821282EF
:1052700013822AC282E063E041E00E94A91582E025
:1052800064E041E00E94A91582E065E041E00E94EF
:10529000A91582E066E040E00E94A91580E090E058
:1052A000A0E2B1E48DAB9EABAFABB8AF6DA97EA968
:1052B0008FA998AD20E030E04AEF54E40E941F022D
:1052C000DC01CB0189AB9AABABABBCAB69A97AA9CA
:1052D0008BA99CA920E030E040E85FE30E94250410
:1052E00088232CF481E090E098AB8FA73FC069A998
:1052F0007AA98BA99CA920E03FEF4FE757E40E94D1
:10530000C50318164CF56DA97EA98FA998AD20E0AC
:1053100030E040E251E40E941F02DC01CB01BC01FD
:10532000CD010E944900DC01CB0198AB8FA70FC0D3
:1053300088EC90E09EA78DA78DA59EA50197F1F71B
:105340009EA78DA78FA598A9019798AB8FA78FA52A
:1053500098A9009769F714C069A97AA98BA99CA993
:105360000E944900DC01CB0198AB8FA78FA598A9BB
:105370009CA78BA78BA59CA50197F1F79CA78BA752
:1053800082E063E041E00E94A91582E064E041E030
:105390000E94A91582E065E040E00E94A91582E024
:1053A00066E041E00E94A91580E090E0A0E2B1E44F
:1053B0008FA398A7A9A7BAA76FA178A589A59AA531
:1053C00020E030E04AEF54E40E941F02DC01CB01F0
:1053D0008BA39CA3ADA3BEA36BA17CA18DA19EA119
:1053E00020E030E040E85FE30E94250488232CF4AD
:1053F00081E090E09AA389A33FC06BA17CA18DA11D
:105400009EA120E03FEF4FE757E40E94C503181626
:105410004CF56FA178A589A59AA520E030E040E27F
:1054200051E40E941F02DC01CB01BC01CD010E94AE
:105430004900DC01CB019AA389A30FC088EC90E05E
:1054400098A38F8F8F8D98A10197F1F798A38F8FD5
:1054500089A19AA101979AA389A389A19AA10097EA
:1054600069F714C06BA17CA18DA19EA10E94490087
:10547000DC01CB019AA389A389A19AA19E8F8D8F6C
:105480008D8D9E8D0197F1F79E8F8D8F82E063E069
:1054900041E00E94A91582E064E040E00E94A91565
:1054A00082E065E041E00E94A91582E066E041E00B
:1054B0000E94A91580E090E0A0E2B1E4898F9A8F64
:1054C000AB8FBC8F698D7A8D8B8D9C8D20E030E009
:1054D0004AEF54E40E941F02DC01CB018D8B9E8BAE
:1054E000AF8BB88F6D897E898F89988D20E030E0F1
:1054F00040E85FE30E94250488232CF481E090E0DB
:105500009C8B8B8B3FC06D897E898F89988D20E025
:105510003FEF4FE757E40E94C50318164CF5698D1D
:105520007A8D8B8D9C8D20E030E040E251E40E942A
:105530001F02DC01CB01BC01CD010E944900DC014E
:10554000CB019C8B8B8B0FC088EC90E09A8B898B66
:1055500089899A890197F1F79A8B898B8B899C8924
:1055600001979C8B8B8B8B899C89009769F714C062
:105570006D897E898F89988D0E944900DC01CB015D
:105580009C8B8B8B8B899C89988B8F878F85988937
:105590000197F1F7988B8F8782E063E040E00E94EB
:1055A000A91582E064E041E00E94A91582E065E06F
:1055B00041E00E94A91582E066E041E00E94A91541
:1055C00080E090E0A0E2B1E48B879C87AD87BE8746
:1055D0006B857C858D859E8520E030E04AEF54E424
:1055E0000E941F02DC01CB018F839887A987BA87AD
:1055F0006F81788589859A8520E030E040E85FE317
:105600000E94250488232CF481E090E09E838D8302
:105610003FC06F81788589859A8520E03FEF4FE70D
:1056200057E40E94C50318164CF56B857C858D8563
:105630009E8520E030E040E251E40E941F02DC0140
:10564000CB01BC01CD010E944900DC01CB019E834E
:105650008D830FC088EC90E09C838B838B819C8131
:105660000197F1F79C838B838D819E8101979E83A7
:105670008D838D819E81009769F714C06F81788535
:1056800089859A850E944900DC01CB019E838D8328
:105690008D819E819A83898389819A810197F1F70F
:1056A0009A8389839E012F583F4FFE01EF58FF4F89
:1056B00080819181A281B3810196A11DB11DF90163
:1056C00080839183A283B383FE01EF58FF4FDE01F5
:1056D000AB58BF4F20813181428153818D919D9183
:1056E0000D90BC91A02D281739074A075B0708F4D5
:1056F000C1CDC158DF4F0FB6F894DEBF0FBECDBF8E
:10570000CF91DF911F910F910895DF93CF93CDB784
:10571000DEB7AFE4B0E0EFE4F0E0808182608C932C
:10572000AFE4B0E0EFE4F0E080818E7F8C93AEE4F4
:10573000B0E0EEE4F0E0808180618C93AEE4B0E014
:10574000EEE4F0E0808188608C93AFE4B0E0EFE4B9
:10575000F0E0808180688C93AFE4B0E0EFE4F0E0AB
:1057600080818F7B8C93E6E4F0E08FE19EE491836F
:105770008083EAE4F0E087EE93E091838083AEE4F7
:10578000B0E0EEE4F0E080818B7F8C93AEE4B0E09B
:10579000EEE4F0E0808182608C93AEE4B0E0EEE471
:1057A000F0E080818E7F8C93CF91DF910895DF931D
:1057B000CF9300D0CDB7DEB79A838983EAE4F0E0D7
:1057C00089819A81918380830F900F90CF91DF918F
:1057D0000895DF93CF93CDB7DEB7A3E5B0E0E3E55F
:1057E000F0E0808188608C93A3E5B0E0E3E5F0E031
:1057F000808180648C93A3E5B0E0E3E5F0E08081F4
:1058000080628C93A3E5B0E0E3E5F0E080818F7ED9
:105810008C93A3E5B0E0E3E5F0E080818B7F8C938F
:10582000A3E5B0E0E3E5F0E0808182608C93A3E53E
:10583000B0E0E3E5F0E080818E7F8C93CF91DF9143
:105840000895DF93CF930F92CDB7DEB78983ECE550
:10585000F0E0898180830F90CF91DF910895DF93ED
:10586000CF9300D00F92CDB7DEB79B838A8381E0C0
:1058700089838A819B81009739F08A819B819093EB
:1058800089038093880301C0198289810F900F904A
:105890000F90CF91DF910895DF93CF9300D00F92B7
:1058A000CDB7DEB79B838A8381E089838A819B8120
:1058B000009739F08A819B8190938B0380938A03B0
:1058C00001C0198289810F900F900F90CF91DF91C5
:1058D00008951F920F920FB60F9211242F933F93AA
:1058E0004F935F936F937F938F939F93AF93BF93E8
:1058F000EF93FF93DF93CF93CDB7DEB780918C0307
:1059000090918D03019690938D0380938C038091E9
:105910008C0390918D032AE08030920799F4E2E5A0
:10592000F0E084EC808310928D0310928C038091C0
:10593000880390918903009729F0E0918803F09102
:1059400089030995CF91DF91FF91EF91BF91AF91BD
:105950009F918F917F916F915F914F913F912F9187
:105960000F900FBE0F901F9018951F920F920FB6B9
:105970000F9211242F933F934F935F936F937F93D5
:105980008F939F93AF93BF93EF93FF93DF93CF9347
:10599000CDB7DEB780918E0390918F0301969093DF
:1059A0008F0380938E0380918E0390918F0327E263
:1059B0008031920779F410928F0310928E038091B8
:1059C0008A0390918B03009729F0E0918A03F0916C
:1059D0008B030995CF91DF91FF91EF91BF91AF912B
:1059E0009F918F917F916F915F914F913F912F91F7
:1059F0000F900FBE0F901F901895DF93CF930F92CB
:105A0000CDB7DEB780E88983ABE2B0E0EBE2F0E04F
:105A100080818D7F8C93ABE2B0E0EBE2F0E080819F
:105A20008E7F8C9389818F7B898389818F7D898308
:105A300089818F7E8983AAE2B0E0EAE2F0E080818A
:105A400088608C93AAE2B0E0EAE2F0E080818061B5
:105A50008C93898188608983898184608983898125
:105A600082608983AAE2B0E0EAE2F0E080818460AB
:105A70008C93E0E4F0E089818083E9E2F0E083E365
:105A80008083E0E4F0E010820F90CF91DF910895E1
:105A9000DF93CF930F92CDB7DEB78983EBE2F0E0CF
:105AA0008081829586958770882F90E081709070B4
:105AB0000097A1F3ECE2F0E0898180830F90CF9111
:105AC000DF910895DF93CF9300D000D0CDB7DEB73C
:105AD0009C838B8381E08A838B819C81009761F01A
